:020000040800F2
:1000000000500020A5100008D1030008F9010008E5
:10001000D3030008D5030008D70300080000000040
:10002000000000000000000000000000D9030008EC
:10003000DB030008000000007B01000841110008FC
:10004000ED100008ED100008ED100008ED1000089C
:10005000ED100008ED100008ED100008ED1000088C
:10006000ED100008ED100008ED100008ED1000087C
:10007000ED100008ED100008ED100008ED1000086C
:10008000ED100008ED100008ED100008ED1000085C
:10009000ED100008ED100008ED100008ED1000084C
:1000A000ED100008ED100008ED100008ED1000083C
:1000B000ED100008ED100008ED100008ED1000082C
:1000C000ED100008ED100008ED100008ED1000081C
:1000D000ED100008ED100008ED100008ED1000080C
:1000E000ED100008ED100008ED1000080000000001
:1000F0000000000000000000000000000000000000
:0C01000000000000000000005FF808F1A3
:10010C0010B5054C237833B9044B13B10448AFF345
:10011C0000800123237010BD7C040020000000002F
:10012C007829000808B5034B1BB103490348AFF30A
:10013C00008008BD00000000800400207829000821
:10014C00EFF3108072B6704780F310887047364A10
:10015C001368012B04D04FF001031360334A106075
:10016C00334A116033484FF0805101607047EFF310
:10017C00108272B62C48016891B14FF000010160F9
:10018C002A48016829B1EFF3098121E9F00F0068D1
:10019C000160274909680968B1E8F00F81F3098803
:1001AC0082F310884EF0040E4EF0040E7047204976
:1001BC0008601E494FF0000008601B494FF0010019
:1001CC0008601D481D49D0F8002041EA0201016079
:1001DC0018484FF08051016019480068006800BF52
:1001EC0080F3088861B662B6704700BFEFF30880F1
:1001FC001EF0040F01D0EFF3098020E9F00F40F856
:10020C0004ED1EF0040F02D080F3098801E080F3A6
:10021C00088800B501F010F85DF804EB4EF0040E00
:10022C007047EFF3058070476817002060170020B7
:10023C006417002004ED00E020ED00E00000FFFF5B
:10024C0008ED00E030B589B00024049405940694C0
:10025C000794174B9A6942F020029A619A6902F04E
:10026C0020020192019A9A6942F010029A619A69ED
:10027C0002F010020292029A9A6942F004029A6108
:10028C009B6903F004030393039B0A4D012209218C
:10029C00284600F0A3FA092304930123059306943E
:1002AC000323079304A9284600F086F909B030BD52
:1002BC00001002400010014010B500240CE0082191
:1002CC00074800F091FA2146064801F03FFC4FF434
:1002DC007A7002F0B9F80134092CF0DD10BD00BFC2
:1002EC00001001409029000808B50021034801F0D6
:1002FC002DFC4FF4FA7002F0A7F8F6E7AC290008D1
:10030C0000B585B00A2303931E2302934FF40073A8
:10031C000193124B00930023114A1249124801F029
:10032C00CFFFB8B1192301931D2300938023002222
:10033C000E490F4801F0E6FF0E4B186008B102F0B1
:10034C00ACF801210C4800F04FFA4FF4FA7002F0AF
:10035C0077F8F6E7044802F0A0F8E3E71005002070
:10036C00C5020008B829000898040020F50200080E
:10037C00C0290008100700200010014072B6FEE7EB
:10038C0082B00E4B9A6942F001029A619A6902F0AE
:10039C0001020092009ADA6942F08052DA61DB695C
:1003AC0003F080530193019B054A536823F0E063EB
:1003BC0043F00073536002B0704700BF001002405E
:1003CC0000000140FEE7FEE7FEE7FEE770477047DE
:1003DC007047000008B50A480A4B03604FF4E1333C
:1003EC00436000238360C36003610C22426183611C
:1003FC00C36100F0B5FD00B908BDFFF7BFFFFBE717
:10040C00140700200038014010B586B00023029379
:10041C000393049305930268174B9A4201D006B0DC
:10042C0010BD03F558439A6942F480429A619A6967
:10043C0002F480420092009A9A6942F004029A6196
:10044C009B6903F004030193019B4FF40073029327
:10045C000223039303230593084C02A9204600F0C2
:10046C00ABF84FF48063029300230393049302A927
:10047C00204600F0A1F8D2E7003801400008014006
:10048C0010B504460E4B18784FF47A73B3FBF0F3A7
:10049C000C4A1068B0FBF3F000F07AF868B90F2C36
:1004AC0001D901200AE0002221464FF0FF3000F074
:1004BC0037F8054B1C60002000E0012010BD00BF88
:1004CC0004000020000000200800002008B5074AA6
:1004DC00136843F010031360032000F00FF80F2093
:1004EC00FFF7CEFFFFF74CFF002008BD00200240B5
:1004FC00014B1868704700BF58070020074AD368A3
:10050C0023F4E0631B041B0C000200F4E0600343C3
:10051C0043F0BF6343F40033D360704700ED00E059
:10052C0000B5194BDB68C3F30223C3F1070CBCF114
:10053C00040F28BF4FF0040C03F1040EBEF1060F9C
:10054C0018D9033B4FF0FF3E0EFA0CFC21EA0C01CC
:10055C0099400EFA03F322EA0303194300280BDB3C
:10056C000901C9B200F1604000F5614080F8001348
:10057C005DF804FB0023E5E700F00F000901C9B2A8
:10058C00024B1954F4E700BF00ED00E014ED00E05D
:10059C000138B0F1807F0BD24FF0E0235861054A4F
:1005AC00F02182F823100020986107221A6170470D
:1005BC000120704700ED00E070B582B00024A44625
:1005CC00A6E0804DAA4210D007D97F4DAA420CD08C
:1005DC0005F58035AA4208D013E0A5F58015AA428E
:1005EC0003D005F57025AA4207D18A68002A58D095
:1005FC00012A51D04361082403E0A5F58015AA42D5
:10060C00F3D0BEF1FF0F4ED80646BEF1FF0F4CD80B
:10061C004FEA8C0233680F25954023EA050304FA50
:10062C0002F2134333604B6813F0805F6ED0674B5C
:10063C009A6942F001029A619B6903F001030193EC
:10064C00019B4FEA9C02951C614B53F825600CF002
:10065C0003039D000F23AB4026EA03065D4B984233
:10066C0029D003F58063984200F08E8003F58063F7
:10067C00984200F08B8003F58063984219D00423D4
:10068C001AE0CC68BDE7CC680434BAE7CC6808340F
:10069C00B7E7CC680C34B4E703610824B1E7002455
:1006AC00AFE70424ADE7061DAFE7ACF108029200FA
:1006BC00B0E7032300E00023AB4033430232444D48
:1006CC0045F822304B6813F4803F61D0424A1368DE
:1006DC0043EA0E0313604B6813F4003F5ED03E4AAE
:1006EC00536843EA0E0353604B6813F4801F5BD0CE
:1006FC00394A936843EA0E0393604B6813F4001F66
:10070C0058D0354AD36843EA0E03D3600CF1010C80
:10071C000A6832FA0CF353D0012303FA0CF302EA01
:10072C00030E33EA0202F1D14A68122A3FF649AFAE
:10073C00122A3FF666AF01A555F822F0F70500081E
:10074C008F06000899060008AB0600080F06000883
:10075C000F0600080F0600080F0600080F06000819
:10076C000F0600080F0600080F0600080F06000809
:10077C000F0600080F0600080F0600080F060008F9
:10078C00930600089F060008012395E7022393E7D0
:10079C00114A136823EA0E0313609CE70E4A536850
:1007AC0023EA0E0353609FE70B4A936823EA0E0378
:1007BC009360A2E7084AD36823EA0E03D360A5E747
:1007CC0002B070BD00002210000031100010024079
:1007DC000000014000080140000401400AB1016121
:1007EC007047090401617047C36801EA030221EAFA
:1007FC00030141EA024101617047000082B0084BDD
:10080C001B68084AA2FB03235B0A00FB03F301935A
:10081C0000BF019B5A1E0192002BF9D102B0704708
:10082C0000000020D34D6210002800F0F18170B55B
:10083C0082B00446036813F0010F2CD0994B5B680F
:10084C0003F00C03042B1DD0964B5B6803F00C03D8
:10085C00082B12D06368B3F5803F41D0002B55D1E3
:10086C0003F1804303F504331A6822F480321A60D2
:10087C001A6822F480221A6037E08A4B5B6813F402
:10088C00803FE7D0874B1B6813F4003F03D06368AD
:10089C00002B00F0BF81236813F0020F75D0814B41
:1008AC005B6813F00C0F5FD07E4B5B6803F00C039E
:1008BC00082B54D02369002B00F08A807A4B01223C
:1008CC001A60FFF715FE0546764B1B6813F0020FF6
:1008DC0075D1FFF70DFE401B0228F5D903209EE1D0
:1008EC00704A136843F480331360636843B3FFF7B3
:1008FC00FFFD05466B4B1B6813F4003FCBD1FFF794
:10090C00F7FD401B6428F5D9032088E1B3F5A02F2F
:10091C0009D0644B1A6822F480321A601A6822F4E7
:10092C0080221A60E1E703F18043A3F53C331A6897
:10093C0042F480221A601A6842F480321A60D4E7BA
:10094C00FFF7D6FD0546574B1B6813F4003FA2D0AA
:10095C00FFF7CEFD401B6428F5D903205FE1514B16
:10096C005B6813F4803FA5D14E4B1B6813F0020F4C
:10097C0003D02369012B40F04F814A4A136823F0BE
:10098C00F803616943EAC1031360236813F0080F8D
:10099C0033D0A369002B5CD0434B0122C3F88024D5
:1009AC00FFF7A6FD05463F4B5B6A13F0020F21D102
:1009BC00FFF79EFD401B0228F5D903202FE1394A91
:1009CC00136823F0F803616943EAC1031360DCE7A1
:1009DC00354B00221A60FFF78BFD0546314B1B6827
:1009EC0013F0020FD1D0FFF783FD401B0228F5D97D
:1009FC00032014E10120FFF701FF236813F0040F1B
:100A0C0000F09680274BDB6913F0805F34D1254BC7
:100A1C00DA6942F08052DA61DB6903F080530193AA
:100A2C00019B0125214B1B6813F4807F26D0E368C2
:100A3C00012B3DD0002B53D103F1804303F504333C
:100A4C001A6A22F001021A621A6A22F004021A626D
:100A5C0033E0154B0022C3F88024FFF749FD05460F
:100A6C00104B5B6A13F0020FC7D0FFF741FD401B20
:100A7C000228F5D90320D2E00025D3E70B4A1368EE
:100A8C0043F480731360FFF733FD0646074B1B6876
:100A9C0013F4807FCBD1FFF72BFD801B6428F5D995
:100AAC000320BCE0001002400000424200700040F5
:100ABC005F4A136A43F001031362E36833B3FFF731
:100ACC0017FD06465A4B1B6A13F0020F2FD1FFF786
:100ADC000FFD801B41F288339842F3D903209EE02E
:100AEC00052B09D0524B1A6A22F001021A621A6ABB
:100AFC0022F004021A62E0E74D4B1A6A42F004023B
:100B0C001A621A6A42F001021A62D6E7FFF7F0FC89
:100B1C000646474B1B6A13F0020F08D0FFF7E8FCA0
:100B2C00801B41F288339842F3D9032077E0E5B972
:100B3C00E369002B72D03E4A526802F00C02082A7C
:100B4C0056D0022B17D03B4B00221A66FFF7D0FC75
:100B5C000446374B1B6813F0007F47D0FFF7C8FCE7
:100B6C00001B0228F5D9032059E0314AD36923F040
:100B7C008053D361DCE72F4B00221A66FFF7B8FCD9
:100B8C0005462B4B1B6813F0007F06D0FFF7B0FC1B
:100B9C00401B0228F5D9032041E0236AB3F5803FBE
:100BAC001AD023494B6823F47413226A606A0243F7
:100BBC0013434B601F4B01221A66FFF799FC044646
:100BCC001B4B1B6813F0007F0ED1FFF791FC001B31
:100BDC000228F5D9032022E0154A536823F4003388
:100BEC00A1680B435360DCE7002018E0002016E0FE
:100BFC00012B16D00E4B5B6803F48031226A9142B4
:100C0C0011D103F47013626A93420ED1002006E0F6
:100C1C0001207047012002E0012000E0002002B01A
:100C2C0070BD0120FBE70120F9E70120F7E700BFC9
:100C3C00001002400000424286B0174B0FCB0DF162
:100C4C00180C0CE90F0040F20123ADF80430134BE3
:100C5C005B6803F00C02082A02D0114806B07047FA
:100C6C00C3F3834218326A4412F8100C13F4803F19
:100C7C000DD00A4B5B68C3F3404318336B4413F835
:100C8C00143C074A02FB00F0B0FBF3F0E6E7054B1F
:100C9C0003FB00F0E2E700BFE0290008001002406F
:100CAC0000127A0000093D00002800F0A08070B509
:100CBC000D460446524B1B6803F007038B420BD2C4
:100CCC004F4A136823F007030B431360136803F0B8
:100CDC0007038B4240F08D80236813F0020F17D06E
:100CEC0013F0040F04D0474A536843F4E063536095
:100CFC00236813F0080F04D0424A536843F460533E
:100D0C005360404A536823F0F003A1680B435360CF
:100D1C00236813F0010F31D06368012B20D0022B14
:100D2C0025D0384A126812F0020F64D035494A684F
:100D3C0022F0030213434B60FFF7DAFB0646314BFC
:100D4C005B6803F00C036268B3EB820F16D0FFF7FD
:100D5C00CFFB801B41F288339842F0D9032045E049
:100D6C00284A126812F4003FE0D101203EE0254AE7
:100D7C00126812F0007FD9D1012037E0204B1B689C
:100D8C0003F00703AB420AD91D4A136823F007038B
:100D9C002B431360136803F00703AB422DD1236878
:100DAC0013F0040F06D0174A536823F4E063E1688C
:100DBC000B435360236813F0080F07D0114A536894
:100DCC0023F46053216943EAC1035360FFF734FFF6
:100DDC000C4B5B68C3F303130B4AD35CD8400B4B2F
:100DEC0018600B4B1868FFF74BFB002070BD0120FF
:100DFC0070470120FAE70120F8E70120F6E700BF71
:100E0C000020024000100240C82900080000002009
:100E1C0008000020014B1868704700BF000000203C
:100E2C0008B5FFF7F7FF044B5B68C3F30223034AD3
:100E3C00D35CD84008BD00BF00100240D829000880
:100E4C0008B5FFF7E7FF044B5B68C3F3C223034A03
:100E5C00D35CD84008BD00BF00100240D829000860
:100E6C0010B504460268136923F44053C1680B4360
:100E7C00136183680269134342691A430168CB68A2
:100E8C0023F4B05323F00C031343CB600268536973
:100E9C0023F4407381690B4353610268134B9A42EC
:100EAC0020D0FFF7BDFF024602EB820202EB82026A
:100EBC0063689B00B2FBF3F20D48A0FB02314909B9
:100ECC00642303FB11231B013233A0FB03235B09B7
:100EDC0003F0F00202EB011203F00F03216813443C
:100EEC008B6010BDFFF7ACFF0246DDE70038014018
:100EFC001F85EB512DE9F84305460F4616469946DA
:100F0C00DDF820802C68246837EA04030CBF4FF00E
:100F1C00010C4FF0000CB4451FD1B8F1FF3FF1D0DC
:100F2C00B8F1000F05D0FFF7E3FAA0EB090040453C
:100F3C00E8D92A68D36823F4D073D3602A6853693C
:100F4C0023F001035361202385F83D3085F83E30B2
:100F5C00002385F83C30032000E00020BDE8F88336
:100F6C0058B310B5044690F83D300BB3242384F8E5
:100F7C003D302268D36823F40053D3602046FFF73A
:100F8C006FFF2268136923F490431361226853693D
:100F9C0023F02A0353612268D36843F40053D360CF
:100FAC0000202064202384F83D3084F83E3010BDAE
:100FBC0080F83C30FFF728FAD8E7012070472DE97C
:100FCC00F04182B01E4690F83D30DBB2202B54D15C
:100FDC0004460D469046002953D0002A53D090F871
:100FEC003C30012B51D0012380F83C3000230364AA
:100FFC00212380F83D30FFF77BFA0746A4F82480C4
:10100C00A4F82680A368B3F5805F05D04FF00008E4
:10101C00002384F83C3012E0236913B14FF0000830
:10102C00F6E7A8460025F3E738F8023B2268C3F33D
:10103C0008035360E28C92B2013A92B2E284E38CE0
:10104C009BB273B100963B46002280212046FFF7ED
:10105C0051FFE0B9002DE7D015F8012B23685A6039
:10106C00E8E700963B46002240212046FFF742FF6E
:10107C0078B9202384F83D3000E0022002B0BDE8AE
:10108C00F0810120FAE70120F8E70220F6E70320BF
:10109C00F4E70320F2E700000C480D490D4A002349
:1010AC0002E0D458C4500433C4188C42F9D30A4A11
:1010BC000A4C002301E013600432A242FBD3FFF779
:1010CC0087F901F06DFB00F0C2F9704700000020B9
:1010DC007C040020A42D00087C040020CC1A0020E5
:1010EC00FEE70000004870475C070020004870478E
:1010FC005C17002038B5044601F02AF808E0651C9E
:10110C004FF47A73012221460948FFF758FF2C4609
:10111C0023784BB10A2BF2D14FF47A7301222021A0
:10112C000348FFF74CFFEAE701F01EF838BD00BF9B
:10113C001407002008B500F073FA00F001F900F074
:10114C007DFA08BD00B591B02822002106A801F057
:10115C004BFB002301930293039304930593012209
:10116C0006924FF4803307930A9202220D920E934B
:10117C004FF4E0130F9306A8FFF756FB80B90F232B
:10118C00019302210291002303934FF48062049295
:10119C00059301A8FFF788FD28B911B05DF804FB91
:1011AC00FFF7ECF8EBE7FFF7E9F8F6E710B5FFF718
:1011BC008DF9FFF7C7FFFFF73FFD0B4BA3FB00308B
:1011CC008009FFF7E5F900F0F5F8FFF78BFF04460F
:1011DC00FFF78CFF0146204600F044FDFFF732F884
:1011EC00FFF7F8F810BD00BFD34D621030B40546C0
:1011FC00043222F0070CACF14000002203E00D4C4D
:10120C0040F8224001320F2AF9D94CF8201C002258
:10121C004CF81C2C4CF8182C4CF8142C4CF8102CAA
:10122C004CF80C3C4CF8085C4FF080734CF8043CC8
:10123C0030BC7047EFBEADDE10B504462A4B1B68C0
:10124C0013B1984700284ED0216C284800F07EFC42
:10125C00616A274800F07AFCA16A264800F076FC07
:10126C00E16A254800F072FC216B244800F06EFC0A
:10127C006168234800F06AFCA168224800F066FC13
:10128C00E168214800F062FC2169204800F05EFC16
:10129C0061691F4800F05AFCA1691E4800F056FC19
:1012AC00E1691D4800F052FC216A1C4800F04EFC1C
:1012BC00616B1B4800F04AFCA16B1A4800F046FC1D
:1012CC00E16B194800F042FC236813F0040F06D0C0
:1012DC0001F012F80146154800F038FCFEE71448FE
:1012EC0000F034FCFAE710BD5C170020F42900086C
:1012FC00042A0008142A0008242A0008342A0008AA
:10130C00442A0008542A0008642A0008742A000899
:10131C00842A0008942A0008A42A0008B42A000889
:10132C00C42A0008D42A0008E42A0008F42A000879
:10133C00142B0008014B1868704700BF6C17002075
:10134C0008B5094A13680133136000F0D5FF036C2C
:10135C00013B036413B101F0B3F908BDC36B036423
:10136C0000F0F8FFF7E700BF6C170020002815DB32
:10137C000C4981FB0023C217C2EBA3124FF47A7CF9
:10138C000CFB02F2831A0CFB03F303F2E73381FB31
:10139C000301D817C0EBA110104470474FF0FF3079
:1013AC00704700BFD34D621000207047002070477B
:1013BC000020704710B5044C02E054F8043B9847E9
:1013CC00024B9C42F9D310BD8C2D0008902D0008C7
:1013DC0010B5044C02E054F8043B9847024B9C4275
:1013EC00F9D310BD902D0008942D000808B5FFF717
:1013FC00EFFFFEF785FF08BD00B583B01423019302
:10140C000A2300934FF4807300220449044800F02F
:10141C0079FF01F042F803B05DF804FBF913000802
:10142C00302B000808B5FEF78BFEFFF7BFFE00F06F
:10143C00A3FB01F0A5F900F0C9FDFFF7DDFF01F0FA
:10144C00ADF900F02FF800F0E7FD002008BD08B55D
:10145C00FFF7E8FF002008BD38B513E00E4B1B6802
:10146C001D4655F814195A684A60196811605B607A
:10147C001B60586900F0C6FC284600F08AFD204627
:10148C00FEF762FEFEF75CFE0446034B1A689A42B6
:10149C00E4D1FEF759FE38BDB019002008B5FFF7AE
:1014AC00DBFFFCE710B584B00A4C202303931F2309
:1014BC0002934FF480730193074B00930023074A68
:1014CC000749204600F0FCFE204600F0E6FF04B081
:1014DC0010BD00BF70170020E8170020A9140008E9
:1014EC00382B000870B5044616461D460A460221E4
:1014FC0000F0EEFC04F11403A3616361A683657232
:10150C00002070BD2DE9F04182B005460191FEF737
:10151C0017FE0746AB8BF3B9019B13B300F0ECFE3F
:10152C0004460023036305F1140695F8098000F0C6
:10153C003FFFB8F1000F19D0B8F1010F1FD0019B7C
:10154C00002B3ADC3846FEF7FFFD00F07DFD206BEA
:10155C0002B0BDE8F081013BAB83FEF7F5FD002046
:10156C00F6E7FEF7F1FD6FF00100F1E704F114036B
:10157C00726813607268A26173606661DFE76B6901
:10158C009E420FD094F8351093F82120914201D34C
:10159C001B68F5E704F1140259680A605968A161E7
:1015AC005A6063619E42CAD104F1140372681360DD
:1015BC007268A26173606661C1E704F1440501AA17
:1015CC000021284601F051F8284600F0CBFFB9E77E
:1015DC0038B50446FEF7B4FD054604F11403606902
:1015EC0083420AD0143800F035FF01242846FEF758
:1015FC00ABFD012C10D0204638BDA38B4FF6FF72EB
:10160C00934203D00133A3830024EFE72846FEF76F
:10161C009BFD6FF00204EEE700F016FD0024EAE7F4
:10162C0008B5FEF78DFD044A13780133DBB2137055
:10163C00FEF78AFD08BD00BFE818002008B5FEF7CC
:10164C007FFD044A1378013BDBB21370FEF77CFD7F
:10165C0008BD00BFE81800202DE9F04784B099467A
:10166C000D9C0E9D15F0400F17D0DFF84CA115F016
:10167C00100F01D025F0010515F0010F10D0302608
:10168C0015F0020F11D0002A0CDB15F0040F21D13C
:10169C0015F0080F20D1002708E0DFF820A1E6E7BD
:1016AC002026EDE752422D2700E0002792BB302385
:1016BC008DF800304FF0010CA4452EDC22460C9B1B
:1016CC009B1A15F0110F38D117B1002B00DD013B1F
:1016DC009E4626E02B27E9E72027E7E7384BA3FBBC
:1016EC00023E4FEADE0E0EEB8E08A2EB4808724665
:1016FC001AF808E00CF110036B4403F810EC0CF131
:10170C00010C002AD8D0B9F10A0FE7D002F00F086B
:10171C001209EDE74FF0000CF3E76246CFE701301A
:10172C009E460EF1FF33BEF1000F06DD8842F6D265
:10173C004FF0200E80F800E0F1E727B1884200D28C
:10174C000770013B013015F0100F02D00CE0013096
:10175C002B465D1E002B03DD8842F8D20670F6E79F
:10176C002B4601E00130724602F1FF3E624506DD78
:10177C008842F7D230220270F4E7013094460CF123
:10178C00FF32BCF1000F0BDD54B18842F5D202F1EF
:10179C0010056D4415F8105C0570EEE7013013462A
:1017AC005A1E002B04DD8842F8D220230370F5E783
:1017BC0004B0BDE8F08700BFD02C0008E42C000872
:1017CC00CDCCCCCC032A22D910B4CCB210F0030F60
:1017DC001FD144EA042444EA0444034605E01C6097
:1017EC005C609C60DC60103A10330F2AF7D802E082
:1017FC0043F8044B043A032AFAD802E003F8011B1D
:10180C00624602F1FF3C002AF8D110BC7047034637
:10181C0004E00346F5E703F8011B624602F1FF3CC6
:10182C00002AF8D170479AB110B5944603468E46FB
:10183C000C7801311C7001331CB1BCF1010CF6D1D8
:10184C0010BDBCF1010CFBD0002203F8012BF8E712
:10185C00704700002DE9F04186B0074688461446D3
:10186C000593461803D36FEA00084FF0FF3638464D
:10187C0001E0013001342378002B00F05681252B38
:10188C0003D0B042F5D20370F3E7002101E041F040
:10189C00100114F8013F2D2BF9D02B2B08D0202B45
:1018AC0009D0232B0AD0302B0BD141F00101F0E7EA
:1018BC0041F00401EDE741F00801EAE741F02001B5
:1018CC00E7E7A3F13002092A1BD92A2B1BD04FF0D2
:1018DC00FF3523782E2B21D04FF0FF3C2278682A3D
:1018EC0043D06C2A41D0002240E005EB850514F86A
:1018FC00013B03EB4505303D2378303B092BF4D9F4
:10190C00E7E70025F8E70134059B1A1D05921D68D1
:10191C00002DDEDA6D4241F01001DAE714F8013FD8
:10192C00A3F13002092A16D92A2B17D04FF0000C3C
:10193C00D4E70CEB8C0C14F8013B03EB4C0CACF126
:10194C00300C2378303B092BF3D9BCF1000FC5DAEE
:10195C004FF0000CC2E74FF0000CF2E70134059B8E
:10196C001A1D0592D3F800C0EFE701342378252B1C
:10197C0000F09180C0F0B080782B00F2AD80582B35
:10198C00C0F0AA80583B202B00F2A680DFE803F0C1
:10199C009CA4A4A4A4A4A4A4A4A4A411A0A4A4A49A
:1019AC00A4A0A4A4A4A4A4896FA4A430A4B3A4A4A4
:1019BC00B50011F0100F09D0059B1A1D05921B786C
:1019CC00B04200D20370013009E00130013D002D1E
:1019DC00F2DDB042F9D220230370F6E70130013D6D
:1019EC00002D7FF747AFB042F8D220230370F5E704
:1019FC00059B1A1D05921A680AB1002302E0524A8F
:101A0C00FBE70133AB4204D012F803E0BEF1000F48
:101A1C00F7D1BCF1000F02DD634500DD634611F028
:101A2C00100F03D000210EE001300D46691EAB42B1
:101A3C0004DAB042F8D220250570F5E70D46F1E73F
:101A4C00013001320131994208DAB042F8D292F8F1
:101A5C0000C080F800C0F3E7013015466A1EAB42A7
:101A6C00BFF608AFB042F7D220210170F4E7B5F110
:101A7C00FF3F0CD0059B1A1D05921A680291CDF8F8
:101A8C0004C0009510233146FFF7E6FDF2E641F065
:101A9C0001010825EEE7B04201D225230370013085
:101AAC00E8E608236C2A2AD0682A2FD0059A02F17E
:101ABC00040ECDF814E012680291CDF804C0009524
:101ACC003146FFF7C9FDD5E641F040011023E9E7A7
:101ADC0041F002010A23E5E7B04201D2252303704D
:101AEC00421C237823B1B24200D243700230C1E6CB
:101AFC00013C1046BEE60A23D4E71023D2E7059A30
:101B0C0002F1040ECDF814E01268D5E7059A02F143
:101B1C00040ECDF814E0D2F800E01FFA8EF211F0AA
:101B2C00020FC9D00FFA8EF2C6E7B8F1000F02D03F
:101B3C00B04204D20370C01B06B0BDE8F081002394
:101B4C0006F8013CF7E700BF402B00080FB410B5B6
:101B5C0082B004AB53F8042B0193064C7F21204632
:101B6C00FFF778FE2046FFF7C5FA02B0BDE810403B
:101B7C0004B07047EC18002000B583B00948FFF79B
:101B8C00E5FF0948FFF7E2FF084B0093052301220C
:101B9C0003210748FFF7DAFF0648FFF7D7FF03B02A
:101BAC005DF804FB482B0008542B0008982B000808
:101BBC00782B0008A42B0008E8B110F0FF020AD122
:101BCC0010F47F4F0BD110F47F0F0ED1030E0A4A85
:101BDC00D05C19307047084B985C01307047C0F3EB
:101BEC000723054AD05C09307047C0F30743024A0B
:101BFC00D05C113070477047D02B0008164B196819
:101C0C0042680A4490420FD053886BB9134B1B683F
:101C1C00934209D0124B1B68934216D05368436011
:101C2C0053680B44421A9A6083680B4498420BD059
:101C3C005A884AB90A4A1268824209D042685A60E4
:101C4C0042680A445B1A93607047054B1860E5E7DD
:101C5C00034A1360F2E700BF701900206C190020D2
:101C6C009419002070B50A4621F00303182B06D9ED
:101C7C00C41C24F00304A3F11801A14204D20146B0
:101C8C001148FFF763FF70BD1B1BA3F118010F4A2E
:101C9C0011600F4D2C604FF4F5522280A3F10C0112
:101CAC0061600023A360638060180A4E306062524A
:101CBC00012242804160816007490848FFF712FC0D
:101CCC002A68074B1A60DEE7002D00089C190020DB
:101CDC00701900206C190020F82C000874190020D1
:101CEC009419002000287AD0F8B50546033525F064
:101CFC0003053D4B1B689D4273D80B2D00D80C255A
:101D0C004FF0FF313948FFF7FDFB394B1E68394B5B
:101D1C001868331A1DE001236380231AFB1A364A14
:101D2C0011680B441360354A1268934247D9334A01
:101D3C00136044E05B6803442D4A13602C4B1B6812
:101D4C005A88002A40D02E4A12689342F2D13BE0C6
:101D5C006368254A1268511B99423BD9C4186188A3
:101D6C000029F5D16768F91A0C39A942F0D305F1AD
:101D7C00180C6145CFD3E9180C3100EB010C4FF472
:101D8C00F55747520027ACF802706768CCF804701E
:101D9C00CCF80830616001236380DCF804300C322D
:101DAC00934201D003449960134A13682B440C33BB
:101DBC001360124A1268934201D9104A13604FF40F
:101DCC00F5532380A642B9D00848FFF701FC04F173
:101DDC000C0003E00548FFF7FBFB0020F8BD0020DA
:101DEC0070470020FAE700BF9C19002074190020EE
:101DFC009419002070190020A019002098190020B7
:101E0C006C190020002842D038B50446204B1B68C2
:101E1C00834203D81F4B1B68834200D838BDA0F106
:101E2C000C054FF0FF311C48FFF76CFB34F80A3CF3
:101E3C0023B134F80C3CB3F5F55F0AD01748FFF723
:101E4C0085FE34F80C3C34F80A2C29461448FFF76C
:101E5C007DFE002324F80A3C4FF4F55324F80C3C87
:101E6C00104B1B68AB4201D90E4B1D60084B1B6815
:101E7C00EB1A54F8081C0C4A5B1A11680B441360DB
:101E8C002846FFF7BBFE0448FFF7A2FBC6E77047E6
:101E9C00701900206C190020741900203C2D0008CA
:101EAC00582D000894190020A01900200023032BA2
:101EBC0009DC1A0105498A5C824201D00133F6E73C
:101ECC0001EB031070470020704700BF0C0000208E
:101EDC002DE9F04106460F4690460846FFF7E6FF0F
:101EEC00054600F035F96B6800E01B682C1D9C4220
:101EFC00FBD100F039F967F07F07377208224146B1
:101F0C003046FFF790FCFEF71BF906F10C036A68EC
:101F1C0053606A68F2606B603461FEF715F9BDE8D6
:101F2C00F08110B5044600230372FEF709F904F1A1
:101F3C000C03E16822694A60E16811602361E36087
:101F4C00FEF702F910BDF8B507460E46FFF7AEFFD7
:101F5C000446C068FFF7C6FE0546C0B1E268002122
:101F6C00FFF730FC2F7200236B7208223146284693
:101F7C00FFF759FCFEF7E4F8221D05F10C0361682C
:101F8C004B606168E96063602A61FEF7DDF8284602
:101F9C00F8BD10B5044600230372FEF7D1F804F126
:101FAC000C03E16822694A60E16811602361E36017
:101FBC00FEF7CAF82046FFF725FF10BD90F9083050
:101FCC00002B01DB002070470120704700230C4AD6
:101FDC00138006E00B4901EBC302526041F8332039
:101FEC0001331F2BF6DD084B1F221A700023074A02
:101FFC001360074A1360074B5B601B60704700BFA0
:10200C00AC190020B8190020A4190020A819002030
:10201C00B81A0020B019002008B5084B1868FFF753
:10202C00CBFD0138064B53F83000A0F11402054BE0
:10203C001A600830FEF7BBF808BD00BFB81A0020C4
:10204C00B8190020A819002038B5FEF779F8044615
:10205C00144BB3F90030C3B9134B1868FFF7ACFD40
:10206C00431E124A52F83310A1F1140210480068B2
:10207C0090420AD00F4D2B700D4B1A600E4B1B78F3
:10208C003BB108311C30FEF762F82046FEF75CF8D5
:10209C0038BD08311C30FEF75AF82046FEF754F8CC
:1020AC00F6E700BFAC190020B81A0020B8190020C0
:1020BC00A8190020A4190020E818002010B5044627
:1020CC00FEF73EF894F9343023F00F0343F001038C
:1020DC0084F8343094F83520094B03EBC20304F137
:1020EC00140259680A605968A1615A606361A16B56
:1020FC00044A13680B431360FEF726F810BD00BFAB
:10210C00B8190020B81A002010B50446FEF718F8CC
:10211C0004F114036169A2694A6061691160A361E9
:10212C00636194F83520084B03EBC20153F832304D
:10213C00994202D0FEF708F810BDA16B034A136850
:10214C0023EA01031360F5E7B8190020B81A002040
:10215C0008B5FDF7F5FF034A138801331380FDF72B
:10216C00F3FF08BDAC19002008B5FDF7E9FF0B4AD9
:10217C001388013B1BB21380002B02DDFDF7E4FF3B
:10218C0008BD134600221A80FDF7DEFF044B1B68C6
:10219C00002BF5D0FFF758FFF2E700BFAC19002079
:1021AC00A819002038B50446FDF7CAFF0546236F71
:1021BC000BB1204698472846FDF7C6FF38BD0000F6
:1021CC0038B5144B1C68FDF7BBFF05462046FFF7DE
:1021DC00E9FF2046FFF798FF042384F8343004F11C
:1021EC00440000F09BF92046FFF7E8FE01280DD0D3
:1021FC0004F11402084B19684A6061611A60A3610A
:10220C00FFF722FF2846FDF79FFF38BD2046FFF75A
:10221C0088FEF5E7A8190020B0190020F0B583B0AE
:10222C00044617460898099A9DF828500B9E04F10D
:10223C001401A161616127626362A062E2622321E1
:10224C00FFF7C0FAA16AE36A1A1F104B0A44616ACD
:10225C00206AFEF7CBFFE06184F8365084F83550E5
:10226C000025A563E6632664256384F8345025674E
:10227C006567019500952346054A214604F1440003
:10228C0000F038F9284603B0F0BD00BFCD2100089E
:10229C00A122000808B56FF00102026300F11402DC
:1022AC008169D0F814C0CCF80410D0F814C0C1F86F
:1022BC0000C082614261FFF701FFFFF7C5FE08BD58
:1022CC00F0B585B005460C4616461F460A46012158
:1022DC00FFF7FEFD0D9B03939DF8303002930B9B93
:1022EC0001930A9B00933B46324621462846FFF752
:1022FC0095FF05B0F0BD0000014B1868704700BF9A
:10230C00A81900202DE9F04385B004460F469046ED
:10231C001D4601460120FFF716FE064688B12846E9
:10232C00FFF7E0FC814680B10D9B03939DF83030A4
:10233C0002930195009043463A4621463046FFF7FA
:10234C006DFF304605B0BDE8F0833046FFF721FE47
:10235C004E46F6E710B5FDF7F3FE134B1B6893F8EA
:10236C00342002F00F02012A03D159699A69914273
:10237C0003D1FDF7E9FE002010BD03F114044A60FF
:10238C00596911609C615C6193F83510074A02EB46
:10239C00C10251680C605168996154605A61FDF733
:1023AC00D3FEFFF751FEE6E7A8190020B81900206C
:1023BC0038B590F8343003F00F03012B17D10446D5
:1023CC00FDF7BEFE05462046FFF79EFE94F934301D
:1023DC0023F00F0343F0020384F8343004F144007B
:1023EC0000F01CF92846FDF7AFFE002038BD4FF079
:1023FC00FF30FBE770B582B00190FDF7A1FE0546FA
:10240C000E4B1C682046FFF7D3FF04F1440601AACB
:10241C000021304600F029F9304600F0A3F8284698
:10242C00FDF792FEFFF710FE236B13F1020F02D0A3
:10243C00002002B070BD00232363F9E7A819002027
:10244C0008B5FFF7D7FF08BD08B5FEF78FFFFFF7FC
:10245C00D1FF08BD38B590F8343003F00F03022BD0
:10246C0018D10446FDF76CFE054604F114036169AE
:10247C00A2694A6061691160A361636104F144005F
:10248C0000F0CCF82846FDF75FFE2046FFF716FE5D
:10249C00002038BD4FF0FF30FBE708B590F8361040
:1024AC0080F8351001228A408263022280F83420A1
:1024BC00FFF7D0FFFFF720FF08B1FFF7C5FD0020A5
:1024CC0008BD9DF800C080F809C02CF0010C80F804
:1024DC0009C0C16102620022826243621346002B72
:1024EC0000DD70479A1C00EBC202111D9160516017
:1024FC000133F4E770B582B0044615461E460A4611
:10250C000A21FFF7E5FC9DF81C300093069B324630
:10251C0029462046FFF7D5FF02B070BD38B50446FA
:10252C00FDF70EFE0022002A0ADD637A23F0010378
:10253C006372FDF709FE2046FFF7F3FC002038BD5F
:10254C00931C04EBC303191D9D68D3F804C0CCF88D
:10255C000450D3F804C0C5F800C09960596001322A
:10256C00E1E7000070B582B00446FDF7E9FD0546D1
:10257C000022002A23DD637A23F001036372FEF745
:10258C00D9FE636AC618A662224B0193002242B39D
:10259C00214A136801331360019B04F1140219687A
:1025AC004A60196861611A60A361637A43F00103A0
:1025BC0063722846FDF7C8FD002002B070BD931C65
:1025CC0004EBC303191D5E68986870605E68066052
:1025DC00996059600132CCE702AB03EB820343F8FC
:1025EC00041C02AB03EB820353F8040CD30009491F
:1025FC0001EBC201496888420AD001681433CB1A36
:10260C009B6A9E42E8D09B1B6FF000408342E3D252
:10261C000132BCE7C01A0020BC1A002038B5437A3E
:10262C0013F0010F1ED00446FDF78AFD0022002A8C
:10263C0007DD637A23F001036372FDF785FD00204B
:10264C0038BD931C04EBC303191D9D68D3F804C05B
:10265C00CCF80450D3F804C0C5F800C09960596098
:10266C000132E4E74FF0FF30EAE770B505460C465F
:10267C001646FDF765FD042C06D8DFE804F00903C7
:10268C000C1116006B6A3360FDF75EFD002070BD07
:10269C0033686B62F8E76B7A23F002036B72F3E733
:1026AC006B7A43F002036B72EEE76B7A13F0010F57
:1026BC0002D001233360E7E700233360E4E7000036
:1026CC002DE9F04182B0CDF804D0CDF800D0FEF762
:1026DC0031FE0546FDF734FD804632E0931C06EBD7
:1026EC00C303191D5D68986868605D680560996032
:1026FC0059600132002AF1DD14F80B3C13F0020F83
:10270C0003D123F0010304F80B3C009B5C602360B5
:10271C0000946F466760A368E0689847FEF70AFE6E
:10272C000546009BBB420CD022686368536022684C
:10273C001A606460246014F80B3C03F00302032A53
:10274C000DD00E4B1C689C4211D0A4F11406636989
:10275C00EB1A6FF00042934209D20022CAE723F031
:10276C00010304F80B3C3046FFF7FCFEE9E740465A
:10277C00FDF7EAFC02B0BDE8F08100BFC01A0020F2
:10278C00002303B17047044901EBC302526041F8C6
:10279C0033200133F5E700BFC01A0020704700005A
:1027AC0070B50D4E0D4D761BB61006D0002455F8A5
:1027BC00043B01349847A642F9D1094E094D00F06B
:1027CC00D5F8761BB61006D0002455F8043B01341E
:1027DC009847A642F9D170BD982D0008982D000895
:1027EC00A02D0008982D0008830730B548D0541E42
:1027FC00002A3FD00346CAB201E0013C3AD303F8A9
:10280C00012B9D07F9D1032C2DD9CDB245EA052515
:10281C000F2C45EA054536D9A4F1100222F00F0C15
:10282C0003F1200EE6444FEA121C03F1100242E9B8
:10283C00045542E9025510327245F8D10CF10102EF
:10284C0014F00C0F03EB021204F00F0C13D0ACF1CC
:10285C00040323F003030433134442F8045B934250
:10286C00FBD10CF003042CB1CAB21C4403F8012BAD
:10287C009C42FBD130BD64461346002CF4D1F9E7E1
:10288C0003461446BFE71A46A446E0E7024B13B1D1
:10289C00024800F005B8704700000000B928000895
:1028AC00002301461A46184600F01AB838B5084BF2
:1028BC00084D5B1B9C1007D0043B1D44013C55F894
:1028CC0004399847002CF9D1BDE8384000F054B8D1
:1028DC00A42D0008A02D0008704700BF704700BF52
:1028EC002DE9F047DFF87CA00646DAF800009846A0
:1028FC000F469146FFF7F0FF1B4B1B68D3F848417E
:10290C0024B365681F2D26DC5EB96B1C0235DAF822
:10291C000000636044F82570FFF7E0FF0020BDE87D
:10292C00F087012304EB8501C1F88890D4F8882145
:10293C00AB401A43022EC4F88821C1F80881E4D1B7
:10294C00D4F88C211343C4F88C31DEE703F5A6745C
:10295C00C3F84841D5E7DAF80000FFF7BFFF4FF0A6
:10296C00FF30DCE778040020882D0008F8B500BFA4
:10297C00F8BC08BC9E467047F8B500BFF8BC08BC54
:04298C009E467047AC
:10299000746872656164315F656E7472795FE7BAFD
:1029A000BFE7A88B0D69693D25640D00636F756EE7
:1029B000743D25640D000000746872656164310027
:1029C000746872656164320000000000000000005D
:1029D00001020304060708090000000001020304C5
:1029E00002030405060708090A0B0C0D0E0F101050
:1029F000000000007073723A203078253038780A71
:102A0000000000007230303A203078253038780AE3
:102A1000000000007230313A203078253038780AD2
:102A2000000000007230323A203078253038780AC1
:102A3000000000007230333A203078253038780AB0
:102A4000000000007230343A203078253038780A9F
:102A5000000000007230353A203078253038780A8E
:102A6000000000007230363A203078253038780A7D
:102A7000000000007230373A203078253038780A6C
:102A8000000000007230383A203078253038780A5B
:102A9000000000007230393A203078253038780A4A
:102AA000000000007231303A203078253038780A42
:102AB000000000007231313A203078253038780A31
:102AC000000000007231323A203078253038780A20
:102AD00000000000206C723A203078253038780AE7
:102AE000000000002070633A203078253038780AE2
:102AF0000000000068617264206661756C74206F6C
:102B00006E207468726561643A2025730D0A0D0A9F
:102B10000000000068617264206661756C74206F4B
:102B20006E2068616E646C65720D0A0D0A0000000B
:102B30006D61696E000000007469646C65000000DE
:102B4000284E554C4C2900000A205C207C202F0A7E
:102B5000000000002D205254202D20202020205441
:102B60006872656164204F7065726174696E672078
:102B700053797374656D0A00202F207C205C20201F
:102B800020202025642E25642E2564206275696C22
:102B9000642025730A0000004A756E203136203209
:102BA000303232002032303036202D203230323078
:102BB00020436F707972696768742062792072743B
:102BC0002D746872656164207465616D0A0000008F
:102BD00000000100020001000300010002000100EA
:102BE00004000100020001000300010002000100D6
:102BF00005000100020001000300010002000100C5
:102C000004000100020001000300010002000100B5
:102C100006000100020001000300010002000100A3
:102C20000400010002000100030001000200010095
:102C30000500010002000100030001000200010084
:102C40000400010002000100030001000200010075
:102C50000700010002000100030001000200010062
:102C60000400010002000100030001000200010055
:102C70000500010002000100030001000200010044
:102C80000400010002000100030001000200010035
:102C90000600010002000100030001000200010023
:102CA0000400010002000100030001000200010015
:102CB0000500010002000100030001000200010004
:102CC00004000100020001000300010002000100F5
:102CD0003031323334353637383941424344454652
:102CE0000000000030313233343536373839616214
:102CF00063646566000000006865617000000000A4
:102D00006D656D20696E69742C206572726F72201A
:102D1000626567696E2061646472657373203078E0
:102D200025782C20616E6420656E64206164647275
:102D300065737320307825780A000000746F206670
:102D40007265652061206261642064617461206243
:102D50006C6F636B3A0A00006D656D3A2030782520
:102D60003038782C207573656420666C61673A2072
:102D700025642C206D6167696320636F64653A2068
:0C2D80003078253034780A005000002024
:042D8C00B513000873
:042D9000B91300086B
:042D9400BD13000863
:082D9800992800083101000830
:042DA0000D01000819
:102DA4000024F400010000001000000001000000F5
:102DB4001000002010000020780000000200000035
:102DC400200000202000002020000000030000005C
:102DD4003000002030000020240000000A00000021
:102DE40040000020400000202C00000000000000F3
:102DF400000000003C030020A40300200C04002079
:102E040000000000000000000000000000000000BE
:102E140000000000000000000000000000000000AE
:102E2400000000000000000000000000000000009E
:102E3400000000000000000000000000000000008E
:102E4400000000000000000000000000000000007E
:102E5400000000000000000000000000000000006E
:102E6400000000000000000000000000000000005E
:102E7400000000000000000000000000000000004E
:102E8400000000000000000000000000000000003E
:102E9400000000000000000001000000000000002D
:102EA4000E33CDAB34126DE6ECDE05000B000000F2
:102EB400000000000000000000000000000000000E
:102EC40000000000000000000000000000000000FE
:102ED40000000000000000000000000000000000EE
:102EE40000000000000000000000000000000000DE
:0C3214000000000000000000C81A0020AC
:04000005080010A53A
:00000001FF
